:100000000C9434000C943E000C943E000C943E0082
:100010000C943E000C943E000C943E000C943E0068
:100020000C943E000C943E000C943E000C943E0058
:100030000C943E000C943E000C943E000C943E0048
:100040000C943E000C943E000C943E000C943E0038
:100050000C943E000C943E000C943E000C943E0028
:100060000C943E000C943E0011241FBECFEFD8E04C
:10007000DEBFCDBF0E9440000C9470000C940000C5
:100080004CE34AB940E244B98823E1F031111AC087
:10009000211122C080E08BB98BB18BB98BB18BB9A8
:1000A0008BB18BB989B186FB992790F989B1382F2B
:1000B000331F3327331F83B1817023B126952170FD
:1000C0008111E4CF992331F0222321F3882311F306
:1000D0003111E0CF84E0DFCF9923E1F284E0DBCF80
:0400E000F894FFCFC2
:00000001FF
