:100000000C9434000C943E000C943E000C943E0082
:100010000C943E000C943E000C943E000C943E0068
:100020000C943E000C943E000C943E000C943E0058
:100030000C943E000C943E000C943E000C943E0048
:100040000C943E000C943E000C943E000C943E0038
:100050000C943E000C943E000C943E000C943E0028
:100060000C943E000C943E0011241FBECFEFD8E04C
:10007000DEBFCDBF0E9440000C9457000C940000DE
:100080009CE39AB990E294B91BB89BB19BB99BB120
:10009000880F880F880F892B8BB95A9A89B189B13B
:1000A00093B181E0911101C080E093B1EDCFF8945C
:0200B000FFCF80
:00000001FF
