:100000000C9434000C943E000C943E000C943E0082
:100010000C943E000C943E000C943E000C943E0068
:100020000C943E000C943E000C943E000C943E0058
:100030000C943E000C943E000C943E000C943E0048
:100040000C943E000C943E000C943E000C943E0038
:100050000C943E000C943E000C943E000C943E0028
:100060000C943E000C943E0011241FBECFEFD8E04C
:10007000DEBFCDBF0E9440000C946B000C940000CA
:100080004CE34AB940E244B9811104C0992351F0CC
:10009000332341F021111DC0992321F0332311F0A6
:1000A000811117C080E08BB98BB18BB98BB18BB943
:1000B0008BB18BB989B186FB222720F989B1881FC2
:1000C0008827881F93B1392F317093B1969591701D
:0A00D000DBCF84E0E8CFF894FFCF07
:00000001FF
