:100000000C9434000C943E000C943E000C943E0082
:100010000C943E000C943E000C943E000C943E0068
:100020000C943E000C943E000C943E000C943E0058
:100030000C943E000C943E000C943E000C943E0048
:100040000C943E000C943E000C943E000C943E0038
:100050000C943E000C943E000C943E000C943E0028
:100060000C943E000C943E0011241FBECFEFD8E04C
:10007000DEBFCDBF0E9440000C9489000C940000AC
:100080003CE33AB930E234B961E02DC021113FC000
:10009000482F4627862790E09C01440F440F440FC9
:1000A0001BB85BB1452B4BB94BB122953295307FD4
:1000B0003227207F3227242B2BB92BB1880F991F91
:1000C00082959295907F9827807F9827822B8BB975
:1000D00089B186FB882780F999B1292F221F222711
:1000E000221F93B19170992389F2811105C02111CA
:1000F00008C040E050E0CECF211103C041E050E005
:10010000C9CF48E0282F30E0862790E0C9CF40E0F3
:06011000F9CFF894FFCFC7
:00000001FF
